{
  "_format": "hh-sol-artifact-1",
  "contractName": "ComplaintBook",
  "sourceName": "contracts/ComplaintBook.sol",
  "abi": [
    {
      "anonymous": false,
      "inputs": [
        {
          "indexed": false,
          "internalType": "uint256",
          "name": "id",
          "type": "uint256"
        },
        {
          "indexed": false,
          "internalType": "address",
          "name": "submitter",
          "type": "address"
        },
        {
          "indexed": false,
          "internalType": "string",
          "name": "text",
          "type": "string"
        },
        {
          "indexed": false,
          "internalType": "uint256",
          "name": "submissionTime",
          "type": "uint256"
        }
      ],
      "name": "NewComplaint",
      "type": "event"
    },
    {
      "inputs": [],
      "name": "complaintCount",
      "outputs": [
        {
          "internalType": "uint256",
          "name": "",
          "type": "uint256"
        }
      ],
      "stateMutability": "view",
      "type": "function"
    },
    {
      "inputs": [
        {
          "internalType": "uint256",
          "name": "",
          "type": "uint256"
        }
      ],
      "name": "complaints",
      "outputs": [
        {
          "internalType": "uint256",
          "name": "id",
          "type": "uint256"
        },
        {
          "internalType": "address",
          "name": "submitter",
          "type": "address"
        },
        {
          "internalType": "string",
          "name": "text",
          "type": "string"
        },
        {
          "internalType": "uint256",
          "name": "submissionTime",
          "type": "uint256"
        }
      ],
      "stateMutability": "view",
      "type": "function"
    },
    {
      "inputs": [],
      "name": "getAllComplaints",
      "outputs": [
        {
          "components": [
            {
              "internalType": "uint256",
              "name": "id",
              "type": "uint256"
            },
            {
              "internalType": "address",
              "name": "submitter",
              "type": "address"
            },
            {
              "internalType": "string",
              "name": "text",
              "type": "string"
            },
            {
              "internalType": "uint256",
              "name": "submissionTime",
              "type": "uint256"
            }
          ],
          "internalType": "struct ComplaintBook.Complaint[]",
          "name": "",
          "type": "tuple[]"
        }
      ],
      "stateMutability": "view",
      "type": "function"
    },
    {
      "inputs": [
        {
          "internalType": "string",
          "name": "_text",
          "type": "string"
        }
      ],
      "name": "submitComplaint",
      "outputs": [],
      "stateMutability": "nonpayable",
      "type": "function"
    }
  ],
  "bytecode": "0x608060405234801561001057600080fd5b50610cd0806100206000396000f3fe608060405234801561001057600080fd5b506004361061004c5760003560e01c80630dac9539146100515780632edea2941461006f57806360d068921461008d5780637e69e912146100a9575b600080fd5b6100596100dc565b6040516100669190610669565b60405180910390f35b610077610237565b604051610084919061069a565b60405180910390f35b6100a760048036038101906100a291906107fe565b61023d565b005b6100c360048036038101906100be9190610873565b610372565b6040516100d394939291906108f9565b60405180910390f35b60606000805480602002602001604051908101604052809291908181526020016000905b8282101561022e5783829060005260206000209060040201604051806080016040529081600082015481526020016001820160009054906101000a900473ffffffffffffffffffffffffffffffffffffffff1673ffffffffffffffffffffffffffffffffffffffff1673ffffffffffffffffffffffffffffffffffffffff16815260200160028201805461019390610974565b80601f01602080910402602001604051908101604052809291908181526020018280546101bf90610974565b801561020c5780601f106101e15761010080835404028352916020019161020c565b820191906000526020600020905b8154815290600101906020018083116101ef57829003601f168201915b5050505050815260200160038201548152505081526020019060010190610100565b50505050905090565b60015481565b60006001549050600060405180608001604052808381526020013373ffffffffffffffffffffffffffffffffffffffff1681526020018481526020014281525090806001815401808255809150506001900390600052602060002090600402016000909190919091506000820151816000015560208201518160010160006101000a81548173ffffffffffffffffffffffffffffffffffffffff021916908373ffffffffffffffffffffffffffffffffffffffff160217905550604082015181600201908161030c9190610b51565b506060820151816003015550506001600081548092919061032c90610c52565b91905055507ff08f449e8a309148c4fc5acf8ee9af9d74fa19306db670b9ca60c1d8ad58b7758133844260405161036694939291906108f9565b60405180910390a15050565b6000818154811061038257600080fd5b90600052602060002090600402016000915090508060000154908060010160009054906101000a900473ffffffffffffffffffffffffffffffffffffffff16908060020180546103d190610974565b80601f01602080910402602001604051908101604052809291908181526020018280546103fd90610974565b801561044a5780601f1061041f5761010080835404028352916020019161044a565b820191906000526020600020905b81548152906001019060200180831161042d57829003601f168201915b5050505050908060030154905084565b600081519050919050565b600082825260208201905092915050565b6000819050602082019050919050565b6000819050919050565b61049981610486565b82525050565b600073ffffffffffffffffffffffffffffffffffffffff82169050919050565b60006104ca8261049f565b9050919050565b6104da816104bf565b82525050565b600081519050919050565b600082825260208201905092915050565b60005b8381101561051a5780820151818401526020810190506104ff565b60008484015250505050565b6000601f19601f8301169050919050565b6000610542826104e0565b61054c81856104eb565b935061055c8185602086016104fc565b61056581610526565b840191505092915050565b60006080830160008301516105886000860182610490565b50602083015161059b60208601826104d1565b50604083015184820360408601526105b38282610537565b91505060608301516105c86060860182610490565b508091505092915050565b60006105df8383610570565b905092915050565b6000602082019050919050565b60006105ff8261045a565b6106098185610465565b93508360208202850161061b85610476565b8060005b85811015610657578484038952815161063885826105d3565b9450610643836105e7565b925060208a0199505060018101905061061f565b50829750879550505050505092915050565b6000602082019050818103600083015261068381846105f4565b905092915050565b61069481610486565b82525050565b60006020820190506106af600083018461068b565b92915050565b6000604051905090565b600080fd5b600080fd5b600080fd5b600080fd5b7f4e487b7100000000000000000000000000000000000000000000000000000000600052604160045260246000fd5b61070b82610526565b810181811067ffffffffffffffff8211171561072a576107296106d3565b5b80604052505050565b600061073d6106b5565b90506107498282610702565b919050565b600067ffffffffffffffff821115610769576107686106d3565b5b61077282610526565b9050602081019050919050565b82818337600083830152505050565b60006107a161079c8461074e565b610733565b9050828152602081018484840111156107bd576107bc6106ce565b5b6107c884828561077f565b509392505050565b600082601f8301126107e5576107e46106c9565b5b81356107f584826020860161078e565b91505092915050565b600060208284031215610814576108136106bf565b5b600082013567ffffffffffffffff811115610832576108316106c4565b5b61083e848285016107d0565b91505092915050565b61085081610486565b811461085b57600080fd5b50565b60008135905061086d81610847565b92915050565b600060208284031215610889576108886106bf565b5b60006108978482850161085e565b91505092915050565b6108a9816104bf565b82525050565b600082825260208201905092915050565b60006108cb826104e0565b6108d581856108af565b93506108e58185602086016104fc565b6108ee81610526565b840191505092915050565b600060808201905061090e600083018761068b565b61091b60208301866108a0565b818103604083015261092d81856108c0565b905061093c606083018461068b565b95945050505050565b7f4e487b7100000000000000000000000000000000000000000000000000000000600052602260045260246000fd5b6000600282049050600182168061098c57607f821691505b60208210810361099f5761099e610945565b5b50919050565b60008190508160005260206000209050919050565b60006020601f8301049050919050565b600082821b905092915050565b600060088302610a077fffffffffffffffffffffffffffffffffffffffffffffffffffffffffffffffff826109ca565b610a1186836109ca565b95508019841693508086168417925050509392505050565b6000819050919050565b6000610a4e610a49610a4484610486565b610a29565b610486565b9050919050565b6000819050919050565b610a6883610a33565b610a7c610a7482610a55565b8484546109d7565b825550505050565b600090565b610a91610a84565b610a9c818484610a5f565b505050565b5b81811015610ac057610ab5600082610a89565b600181019050610aa2565b5050565b601f821115610b0557610ad6816109a5565b610adf846109ba565b81016020851015610aee578190505b610b02610afa856109ba565b830182610aa1565b50505b505050565b600082821c905092915050565b6000610b2860001984600802610b0a565b1980831691505092915050565b6000610b418383610b17565b9150826002028217905092915050565b610b5a826104e0565b67ffffffffffffffff811115610b7357610b726106d3565b5b610b7d8254610974565b610b88828285610ac4565b600060209050601f831160018114610bbb5760008415610ba9578287015190505b610bb38582610b35565b865550610c1b565b601f198416610bc9866109a5565b60005b82811015610bf157848901518255600182019150602085019450602081019050610bcc565b86831015610c0e5784890151610c0a601f891682610b17565b8355505b6001600288020188555050505b505050505050565b7f4e487b7100000000000000000000000000000000000000000000000000000000600052601160045260246000fd5b6000610c5d82610486565b91507fffffffffffffffffffffffffffffffffffffffffffffffffffffffffffffffff8203610c8f57610c8e610c23565b5b60018201905091905056fea2646970667358221220ea02ab6c368b825e5e6d5d95099c7b17b813255c06e0916a260102797bb2d28364736f6c63430008120033",
  "linkReferences": {},
  "deployedLinkReferences": {}
}