{"contracts/ComplaintBook.sol":{"ComplaintBook":{"abi":[{"anonymous":false,"inputs":[{"indexed":false,"internalType":"uint256","name":"id","type":"uint256"},{"indexed":false,"internalType":"address","name":"submitter","type":"address"},{"indexed":false,"internalType":"string","name":"text","type":"string"},{"indexed":false,"internalType":"uint256","name":"submissionTime","type":"uint256"}],"name":"NewComplaint","type":"event"},{"inputs":[],"name":"complaintCount","outputs":[{"internalType":"uint256","name":"","type":"uint256"}],"stateMutability":"view","type":"function"},{"inputs":[{"internalType":"uint256","name":"","type":"uint256"}],"name":"complaints","outputs":[{"internalType":"uint256","name":"id","type":"uint256"},{"internalType":"address","name":"submitter","type":"address"},{"internalType":"string","name":"text","type":"string"},{"internalType":"uint256","name":"submissionTime","type":"uint256"}],"stateMutability":"view","type":"function"},{"inputs":[],"name":"getAllComplaints","outputs":[{"components":[{"internalType":"uint256","name":"id","type":"uint256"},{"internalType":"address","name":"submitter","type":"address"},{"internalType":"string","name":"text","type":"string"},{"internalType":"uint256","name":"submissionTime","type":"uint256"}],"internalType":"struct ComplaintBook.Complaint[]","name":"","type":"tuple[]"}],"stateMutability":"view","type":"function"},{"inputs":[{"internalType":"string","name":"_text","type":"string"}],"name":"submitComplaint","outputs":[],"stateMutability":"nonpayable","type":"function"}],"evm":{"bytecode":{"linkReferences":{},"object":"608060405234801561001057600080fd5b50610cd0806100206000396000f3fe608060405234801561001057600080fd5b506004361061004c5760003560e01c80630dac9539146100515780632edea2941461006f57806360d068921461008d5780637e69e912146100a9575b600080fd5b6100596100dc565b6040516100669190610669565b60405180910390f35b610077610237565b604051610084919061069a565b60405180910390f35b6100a760048036038101906100a291906107fe565b61023d565b005b6100c360048036038101906100be9190610873565b610372565b6040516100d394939291906108f9565b60405180910390f35b60606000805480602002602001604051908101604052809291908181526020016000905b8282101561022e5783829060005260206000209060040201604051806080016040529081600082015481526020016001820160009054906101000a900473ffffffffffffffffffffffffffffffffffffffff1673ffffffffffffffffffffffffffffffffffffffff1673ffffffffffffffffffffffffffffffffffffffff16815260200160028201805461019390610974565b80601f01602080910402602001604051908101604052809291908181526020018280546101bf90610974565b801561020c5780601f106101e15761010080835404028352916020019161020c565b820191906000526020600020905b8154815290600101906020018083116101ef57829003601f168201915b5050505050815260200160038201548152505081526020019060010190610100565b50505050905090565b60015481565b60006001549050600060405180608001604052808381526020013373ffffffffffffffffffffffffffffffffffffffff1681526020018481526020014281525090806001815401808255809150506001900390600052602060002090600402016000909190919091506000820151816000015560208201518160010160006101000a81548173ffffffffffffffffffffffffffffffffffffffff021916908373ffffffffffffffffffffffffffffffffffffffff160217905550604082015181600201908161030c9190610b51565b506060820151816003015550506001600081548092919061032c90610c52565b91905055507ff08f449e8a309148c4fc5acf8ee9af9d74fa19306db670b9ca60c1d8ad58b7758133844260405161036694939291906108f9565b60405180910390a15050565b6000818154811061038257600080fd5b90600052602060002090600402016000915090508060000154908060010160009054906101000a900473ffffffffffffffffffffffffffffffffffffffff16908060020180546103d190610974565b80601f01602080910402602001604051908101604052809291908181526020018280546103fd90610974565b801561044a5780601f1061041f5761010080835404028352916020019161044a565b820191906000526020600020905b81548152906001019060200180831161042d57829003601f168201915b5050505050908060030154905084565b600081519050919050565b600082825260208201905092915050565b6000819050602082019050919050565b6000819050919050565b61049981610486565b82525050565b600073ffffffffffffffffffffffffffffffffffffffff82169050919050565b60006104ca8261049f565b9050919050565b6104da816104bf565b82525050565b600081519050919050565b600082825260208201905092915050565b60005b8381101561051a5780820151818401526020810190506104ff565b60008484015250505050565b6000601f19601f8301169050919050565b6000610542826104e0565b61054c81856104eb565b935061055c8185602086016104fc565b61056581610526565b840191505092915050565b60006080830160008301516105886000860182610490565b50602083015161059b60208601826104d1565b50604083015184820360408601526105b38282610537565b91505060608301516105c86060860182610490565b508091505092915050565b60006105df8383610570565b905092915050565b6000602082019050919050565b60006105ff8261045a565b6106098185610465565b93508360208202850161061b85610476565b8060005b85811015610657578484038952815161063885826105d3565b9450610643836105e7565b925060208a0199505060018101905061061f565b50829750879550505050505092915050565b6000602082019050818103600083015261068381846105f4565b905092915050565b61069481610486565b82525050565b60006020820190506106af600083018461068b565b92915050565b6000604051905090565b600080fd5b600080fd5b600080fd5b600080fd5b7f4e487b7100000000000000000000000000000000000000000000000000000000600052604160045260246000fd5b61070b82610526565b810181811067ffffffffffffffff8211171561072a576107296106d3565b5b80604052505050565b600061073d6106b5565b90506107498282610702565b919050565b600067ffffffffffffffff821115610769576107686106d3565b5b61077282610526565b9050602081019050919050565b82818337600083830152505050565b60006107a161079c8461074e565b610733565b9050828152602081018484840111156107bd576107bc6106ce565b5b6107c884828561077f565b509392505050565b600082601f8301126107e5576107e46106c9565b5b81356107f584826020860161078e565b91505092915050565b600060208284031215610814576108136106bf565b5b600082013567ffffffffffffffff811115610832576108316106c4565b5b61083e848285016107d0565b91505092915050565b61085081610486565b811461085b57600080fd5b50565b60008135905061086d81610847565b92915050565b600060208284031215610889576108886106bf565b5b60006108978482850161085e565b91505092915050565b6108a9816104bf565b82525050565b600082825260208201905092915050565b60006108cb826104e0565b6108d581856108af565b93506108e58185602086016104fc565b6108ee81610526565b840191505092915050565b600060808201905061090e600083018761068b565b61091b60208301866108a0565b818103604083015261092d81856108c0565b905061093c606083018461068b565b95945050505050565b7f4e487b7100000000000000000000000000000000000000000000000000000000600052602260045260246000fd5b6000600282049050600182168061098c57607f821691505b60208210810361099f5761099e610945565b5b50919050565b60008190508160005260206000209050919050565b60006020601f8301049050919050565b600082821b905092915050565b600060088302610a077fffffffffffffffffffffffffffffffffffffffffffffffffffffffffffffffff826109ca565b610a1186836109ca565b95508019841693508086168417925050509392505050565b6000819050919050565b6000610a4e610a49610a4484610486565b610a29565b610486565b9050919050565b6000819050919050565b610a6883610a33565b610a7c610a7482610a55565b8484546109d7565b825550505050565b600090565b610a91610a84565b610a9c818484610a5f565b505050565b5b81811015610ac057610ab5600082610a89565b600181019050610aa2565b5050565b601f821115610b0557610ad6816109a5565b610adf846109ba565b81016020851015610aee578190505b610b02610afa856109ba565b830182610aa1565b50505b505050565b600082821c905092915050565b6000610b2860001984600802610b0a565b1980831691505092915050565b6000610b418383610b17565b9150826002028217905092915050565b610b5a826104e0565b67ffffffffffffffff811115610b7357610b726106d3565b5b610b7d8254610974565b610b88828285610ac4565b600060209050601f831160018114610bbb5760008415610ba9578287015190505b610bb38582610b35565b865550610c1b565b601f198416610bc9866109a5565b60005b82811015610bf157848901518255600182019150602085019450602081019050610bcc565b86831015610c0e5784890151610c0a601f891682610b17565b8355505b6001600288020188555050505b505050505050565b7f4e487b7100000000000000000000000000000000000000000000000000000000600052601160045260246000fd5b6000610c5d82610486565b91507fffffffffffffffffffffffffffffffffffffffffffffffffffffffffffffffff8203610c8f57610c8e610c23565b5b60018201905091905056fea2646970667358221220ea02ab6c368b825e5e6d5d95099c7b17b813255c06e0916a260102797bb2d28364736f6c63430008120033","opcodes":"PUSH1 0x80 PUSH1 0x40 MSTORE CALLVALUE DUP1 ISZERO PUSH2 0x10 JUMPI PUSH1 0x0 DUP1 REVERT JUMPDEST POP PUSH2 0xCD0 DUP1 PUSH2 0x20 PUSH1 0x0 CODECOPY PUSH1 0x0 RETURN INVALID PUSH1 0x80 PUSH1 0x40 MSTORE CALLVALUE DUP1 ISZERO PUSH2 0x10 JUMPI PUSH1 0x0 DUP1 REVERT JUMPDEST POP PUSH1 0x4 CALLDATASIZE LT PUSH2 0x4C JUMPI PUSH1 0x0 CALLDATALOAD PUSH1 0xE0 SHR DUP1 PUSH4 0xDAC9539 EQ PUSH2 0x51 JUMPI DUP1 PUSH4 0x2EDEA294 EQ PUSH2 0x6F JUMPI DUP1 PUSH4 0x60D06892 EQ PUSH2 0x8D JUMPI DUP1 PUSH4 0x7E69E912 EQ PUSH2 0xA9 JUMPI JUMPDEST PUSH1 0x0 DUP1 REVERT JUMPDEST PUSH2 0x59 PUSH2 0xDC JUMP JUMPDEST PUSH1 0x40 MLOAD PUSH2 0x66 SWAP2 SWAP1 PUSH2 0x669 JUMP JUMPDEST PUSH1 0x40 MLOAD DUP1 SWAP2 SUB SWAP1 RETURN JUMPDEST PUSH2 0x77 PUSH2 0x237 JUMP JUMPDEST PUSH1 0x40 MLOAD PUSH2 0x84 SWAP2 SWAP1 PUSH2 0x69A JUMP JUMPDEST PUSH1 0x40 MLOAD DUP1 SWAP2 SUB SWAP1 RETURN JUMPDEST PUSH2 0xA7 PUSH1 0x4 DUP1 CALLDATASIZE SUB DUP2 ADD SWAP1 PUSH2 0xA2 SWAP2 SWAP1 PUSH2 0x7FE JUMP JUMPDEST PUSH2 0x23D JUMP JUMPDEST STOP JUMPDEST PUSH2 0xC3 PUSH1 0x4 DUP1 CALLDATASIZE SUB DUP2 ADD SWAP1 PUSH2 0xBE SWAP2 SWAP1 PUSH2 0x873 JUMP JUMPDEST PUSH2 0x372 JUMP JUMPDEST PUSH1 0x40 MLOAD PUSH2 0xD3 SWAP5 SWAP4 SWAP3 SWAP2 SWAP1 PUSH2 0x8F9 JUMP JUMPDEST PUSH1 0x40 MLOAD DUP1 SWAP2 SUB SWAP1 RETURN JUMPDEST PUSH1 0x60 PUSH1 0x0 DUP1 SLOAD DUP1 PUSH1 0x20 MUL PUSH1 0x20 ADD PUSH1 0x40 MLOAD SWAP1 DUP2 ADD PUSH1 0x40 MSTORE DUP1 SWAP3 SWAP2 SWAP1 DUP2 DUP2 MSTORE PUSH1 0x20 ADD PUSH1 0x0 SWAP1 JUMPDEST DUP3 DUP3 LT ISZERO PUSH2 0x22E JUMPI DUP4 DUP3 SWAP1 PUSH1 0x0 MSTORE PUSH1 0x20 PUSH1 0x0 KECCAK256 SWAP1 PUSH1 0x4 MUL ADD PUSH1 0x40 MLOAD DUP1 PUSH1 0x80 ADD PUSH1 0x40 MSTORE SWAP1 DUP2 PUSH1 0x0 DUP3 ADD SLOAD DUP2 MSTORE PUSH1 0x20 ADD PUSH1 0x1 DUP3 ADD PUSH1 0x0 SWAP1 SLOAD SWAP1 PUSH2 0x100 EXP SWAP1 DIV PUSH20 0xFFFFFFFFFFFFFFFFFFFFFFFFFFFFFFFFFFFFFFFF AND PUSH20 0xFFFFFFFFFFFFFFFFFFFFFFFFFFFFFFFFFFFFFFFF AND PUSH20 0xFFFFFFFFFFFFFFFFFFFFFFFFFFFFFFFFFFFFFFFF AND DUP2 MSTORE PUSH1 0x20 ADD PUSH1 0x2 DUP3 ADD DUP1 SLOAD PUSH2 0x193 SWAP1 PUSH2 0x974 JUMP JUMPDEST DUP1 PUSH1 0x1F ADD PUSH1 0x20 DUP1 SWAP2 DIV MUL PUSH1 0x20 ADD PUSH1 0x40 MLOAD SWAP1 DUP2 ADD PUSH1 0x40 MSTORE DUP1 SWAP3 SWAP2 SWAP1 DUP2 DUP2 MSTORE PUSH1 0x20 ADD DUP3 DUP1 SLOAD PUSH2 0x1BF SWAP1 PUSH2 0x974 JUMP JUMPDEST DUP1 ISZERO PUSH2 0x20C JUMPI DUP1 PUSH1 0x1F LT PUSH2 0x1E1 JUMPI PUSH2 0x100 DUP1 DUP4 SLOAD DIV MUL DUP4 MSTORE SWAP2 PUSH1 0x20 ADD SWAP2 PUSH2 0x20C JUMP JUMPDEST DUP3 ADD SWAP2 SWAP1 PUSH1 0x0 MSTORE PUSH1 0x20 PUSH1 0x0 KECCAK256 SWAP1 JUMPDEST DUP2 SLOAD DUP2 MSTORE SWAP1 PUSH1 0x1 ADD SWAP1 PUSH1 0x20 ADD DUP1 DUP4 GT PUSH2 0x1EF JUMPI DUP3 SWAP1 SUB PUSH1 0x1F AND DUP3 ADD SWAP2 JUMPDEST POP POP POP POP POP DUP2 MSTORE PUSH1 0x20 ADD PUSH1 0x3 DUP3 ADD SLOAD DUP2 MSTORE POP POP DUP2 MSTORE PUSH1 0x20 ADD SWAP1 PUSH1 0x1 ADD SWAP1 PUSH2 0x100 JUMP JUMPDEST POP POP POP POP SWAP1 POP SWAP1 JUMP JUMPDEST PUSH1 0x1 SLOAD DUP2 JUMP JUMPDEST PUSH1 0x0 PUSH1 0x1 SLOAD SWAP1 POP PUSH1 0x0 PUSH1 0x40 MLOAD DUP1 PUSH1 0x80 ADD PUSH1 0x40 MSTORE DUP1 DUP4 DUP2 MSTORE PUSH1 0x20 ADD CALLER PUSH20 0xFFFFFFFFFFFFFFFFFFFFFFFFFFFFFFFFFFFFFFFF AND DUP2 MSTORE PUSH1 0x20 ADD DUP5 DUP2 MSTORE PUSH1 0x20 ADD TIMESTAMP DUP2 MSTORE POP SWAP1 DUP1 PUSH1 0x1 DUP2 SLOAD ADD DUP1 DUP3 SSTORE DUP1 SWAP2 POP POP PUSH1 0x1 SWAP1 SUB SWAP1 PUSH1 0x0 MSTORE PUSH1 0x20 PUSH1 0x0 KECCAK256 SWAP1 PUSH1 0x4 MUL ADD PUSH1 0x0 SWAP1 SWAP2 SWAP1 SWAP2 SWAP1 SWAP2 POP PUSH1 0x0 DUP3 ADD MLOAD DUP2 PUSH1 0x0 ADD SSTORE PUSH1 0x20 DUP3 ADD MLOAD DUP2 PUSH1 0x1 ADD PUSH1 0x0 PUSH2 0x100 EXP DUP2 SLOAD DUP2 PUSH20 0xFFFFFFFFFFFFFFFFFFFFFFFFFFFFFFFFFFFFFFFF MUL NOT AND SWAP1 DUP4 PUSH20 0xFFFFFFFFFFFFFFFFFFFFFFFFFFFFFFFFFFFFFFFF AND MUL OR SWAP1 SSTORE POP PUSH1 0x40 DUP3 ADD MLOAD DUP2 PUSH1 0x2 ADD SWAP1 DUP2 PUSH2 0x30C SWAP2 SWAP1 PUSH2 0xB51 JUMP JUMPDEST POP PUSH1 0x60 DUP3 ADD MLOAD DUP2 PUSH1 0x3 ADD SSTORE POP POP PUSH1 0x1 PUSH1 0x0 DUP2 SLOAD DUP1 SWAP3 SWAP2 SWAP1 PUSH2 0x32C SWAP1 PUSH2 0xC52 JUMP JUMPDEST SWAP2 SWAP1 POP SSTORE POP PUSH32 0xF08F449E8A309148C4FC5ACF8EE9AF9D74FA19306DB670B9CA60C1D8AD58B775 DUP2 CALLER DUP5 TIMESTAMP PUSH1 0x40 MLOAD PUSH2 0x366 SWAP5 SWAP4 SWAP3 SWAP2 SWAP1 PUSH2 0x8F9 JUMP JUMPDEST PUSH1 0x40 MLOAD DUP1 SWAP2 SUB SWAP1 LOG1 POP POP JUMP JUMPDEST PUSH1 0x0 DUP2 DUP2 SLOAD DUP2 LT PUSH2 0x382 JUMPI PUSH1 0x0 DUP1 REVERT JUMPDEST SWAP1 PUSH1 0x0 MSTORE PUSH1 0x20 PUSH1 0x0 KECCAK256 SWAP1 PUSH1 0x4 MUL ADD PUSH1 0x0 SWAP2 POP SWAP1 POP DUP1 PUSH1 0x0 ADD SLOAD SWAP1 DUP1 PUSH1 0x1 ADD PUSH1 0x0 SWAP1 SLOAD SWAP1 PUSH2 0x100 EXP SWAP1 DIV PUSH20 0xFFFFFFFFFFFFFFFFFFFFFFFFFFFFFFFFFFFFFFFF AND SWAP1 DUP1 PUSH1 0x2 ADD DUP1 SLOAD PUSH2 0x3D1 SWAP1 PUSH2 0x974 JUMP JUMPDEST DUP1 PUSH1 0x1F ADD PUSH1 0x20 DUP1 SWAP2 DIV MUL PUSH1 0x20 ADD PUSH1 0x40 MLOAD SWAP1 DUP2 ADD PUSH1 0x40 MSTORE DUP1 SWAP3 SWAP2 SWAP1 DUP2 DUP2 MSTORE PUSH1 0x20 ADD DUP3 DUP1 SLOAD PUSH2 0x3FD SWAP1 PUSH2 0x974 JUMP JUMPDEST DUP1 ISZERO PUSH2 0x44A JUMPI DUP1 PUSH1 0x1F LT PUSH2 0x41F JUMPI PUSH2 0x100 DUP1 DUP4 SLOAD DIV MUL DUP4 MSTORE SWAP2 PUSH1 0x20 ADD SWAP2 PUSH2 0x44A JUMP JUMPDEST DUP3 ADD SWAP2 SWAP1 PUSH1 0x0 MSTORE PUSH1 0x20 PUSH1 0x0 KECCAK256 SWAP1 JUMPDEST DUP2 SLOAD DUP2 MSTORE SWAP1 PUSH1 0x1 ADD SWAP1 PUSH1 0x20 ADD DUP1 DUP4 GT PUSH2 0x42D JUMPI DUP3 SWAP1 SUB PUSH1 0x1F AND DUP3 ADD SWAP2 JUMPDEST POP POP POP POP POP SWAP1 DUP1 PUSH1 0x3 ADD SLOAD SWAP1 POP DUP5 JUMP JUMPDEST PUSH1 0x0 DUP2 MLOAD SWAP1 POP SWAP2 SWAP1 POP JUMP JUMPDEST PUSH1 0x0 DUP3 DUP3 MSTORE PUSH1 0x20 DUP3 ADD SWAP1 POP SWAP3 SWAP2 POP POP JUMP JUMPDEST PUSH1 0x0 DUP2 SWAP1 POP PUSH1 0x20 DUP3 ADD SWAP1 POP SWAP2 SWAP1 POP JUMP JUMPDEST PUSH1 0x0 DUP2 SWAP1 POP SWAP2 SWAP1 POP JUMP JUMPDEST PUSH2 0x499 DUP2 PUSH2 0x486 JUMP JUMPDEST DUP3 MSTORE POP POP JUMP JUMPDEST PUSH1 0x0 PUSH20 0xFFFFFFFFFFFFFFFFFFFFFFFFFFFFFFFFFFFFFFFF DUP3 AND SWAP1 POP SWAP2 SWAP1 POP JUMP JUMPDEST PUSH1 0x0 PUSH2 0x4CA DUP3 PUSH2 0x49F JUMP JUMPDEST SWAP1 POP SWAP2 SWAP1 POP JUMP JUMPDEST PUSH2 0x4DA DUP2 PUSH2 0x4BF JUMP JUMPDEST DUP3 MSTORE POP POP JUMP JUMPDEST PUSH1 0x0 DUP2 MLOAD SWAP1 POP SWAP2 SWAP1 POP JUMP JUMPDEST PUSH1 0x0 DUP3 DUP3 MSTORE PUSH1 0x20 DUP3 ADD SWAP1 POP SWAP3 SWAP2 POP POP JUMP JUMPDEST PUSH1 0x0 JUMPDEST DUP4 DUP2 LT ISZERO PUSH2 0x51A JUMPI DUP1 DUP3 ADD MLOAD DUP2 DUP5 ADD MSTORE PUSH1 0x20 DUP2 ADD SWAP1 POP PUSH2 0x4FF JUMP JUMPDEST PUSH1 0x0 DUP5 DUP5 ADD MSTORE POP POP POP POP JUMP JUMPDEST PUSH1 0x0 PUSH1 0x1F NOT PUSH1 0x1F DUP4 ADD AND SWAP1 POP SWAP2 SWAP1 POP JUMP JUMPDEST PUSH1 0x0 PUSH2 0x542 DUP3 PUSH2 0x4E0 JUMP JUMPDEST PUSH2 0x54C DUP2 DUP6 PUSH2 0x4EB JUMP JUMPDEST SWAP4 POP PUSH2 0x55C DUP2 DUP6 PUSH1 0x20 DUP7 ADD PUSH2 0x4FC JUMP JUMPDEST PUSH2 0x565 DUP2 PUSH2 0x526 JUMP JUMPDEST DUP5 ADD SWAP2 POP POP SWAP3 SWAP2 POP POP JUMP JUMPDEST PUSH1 0x0 PUSH1 0x80 DUP4 ADD PUSH1 0x0 DUP4 ADD MLOAD PUSH2 0x588 PUSH1 0x0 DUP7 ADD DUP3 PUSH2 0x490 JUMP JUMPDEST POP PUSH1 0x20 DUP4 ADD MLOAD PUSH2 0x59B PUSH1 0x20 DUP7 ADD DUP3 PUSH2 0x4D1 JUMP JUMPDEST POP PUSH1 0x40 DUP4 ADD MLOAD DUP5 DUP3 SUB PUSH1 0x40 DUP7 ADD MSTORE PUSH2 0x5B3 DUP3 DUP3 PUSH2 0x537 JUMP JUMPDEST SWAP2 POP POP PUSH1 0x60 DUP4 ADD MLOAD PUSH2 0x5C8 PUSH1 0x60 DUP7 ADD DUP3 PUSH2 0x490 JUMP JUMPDEST POP DUP1 SWAP2 POP POP SWAP3 SWAP2 POP POP JUMP JUMPDEST PUSH1 0x0 PUSH2 0x5DF DUP4 DUP4 PUSH2 0x570 JUMP JUMPDEST SWAP1 POP SWAP3 SWAP2 POP POP JUMP JUMPDEST PUSH1 0x0 PUSH1 0x20 DUP3 ADD SWAP1 POP SWAP2 SWAP1 POP JUMP JUMPDEST PUSH1 0x0 PUSH2 0x5FF DUP3 PUSH2 0x45A JUMP JUMPDEST PUSH2 0x609 DUP2 DUP6 PUSH2 0x465 JUMP JUMPDEST SWAP4 POP DUP4 PUSH1 0x20 DUP3 MUL DUP6 ADD PUSH2 0x61B DUP6 PUSH2 0x476 JUMP JUMPDEST DUP1 PUSH1 0x0 JUMPDEST DUP6 DUP2 LT ISZERO PUSH2 0x657 JUMPI DUP5 DUP5 SUB DUP10 MSTORE DUP2 MLOAD PUSH2 0x638 DUP6 DUP3 PUSH2 0x5D3 JUMP JUMPDEST SWAP5 POP PUSH2 0x643 DUP4 PUSH2 0x5E7 JUMP JUMPDEST SWAP3 POP PUSH1 0x20 DUP11 ADD SWAP10 POP POP PUSH1 0x1 DUP2 ADD SWAP1 POP PUSH2 0x61F JUMP JUMPDEST POP DUP3 SWAP8 POP DUP8 SWAP6 POP POP POP POP POP POP SWAP3 SWAP2 POP POP JUMP JUMPDEST PUSH1 0x0 PUSH1 0x20 DUP3 ADD SWAP1 POP DUP2 DUP2 SUB PUSH1 0x0 DUP4 ADD MSTORE PUSH2 0x683 DUP2 DUP5 PUSH2 0x5F4 JUMP JUMPDEST SWAP1 POP SWAP3 SWAP2 POP POP JUMP JUMPDEST PUSH2 0x694 DUP2 PUSH2 0x486 JUMP JUMPDEST DUP3 MSTORE POP POP JUMP JUMPDEST PUSH1 0x0 PUSH1 0x20 DUP3 ADD SWAP1 POP PUSH2 0x6AF PUSH1 0x0 DUP4 ADD DUP5 PUSH2 0x68B JUMP JUMPDEST SWAP3 SWAP2 POP POP JUMP JUMPDEST PUSH1 0x0 PUSH1 0x40 MLOAD SWAP1 POP SWAP1 JUMP JUMPDEST PUSH1 0x0 DUP1 REVERT JUMPDEST PUSH1 0x0 DUP1 REVERT JUMPDEST PUSH1 0x0 DUP1 REVERT JUMPDEST PUSH1 0x0 DUP1 REVERT JUMPDEST PUSH32 0x4E487B7100000000000000000000000000000000000000000000000000000000 PUSH1 0x0 MSTORE PUSH1 0x41 PUSH1 0x4 MSTORE PUSH1 0x24 PUSH1 0x0 REVERT JUMPDEST PUSH2 0x70B DUP3 PUSH2 0x526 JUMP JUMPDEST DUP2 ADD DUP2 DUP2 LT PUSH8 0xFFFFFFFFFFFFFFFF DUP3 GT OR ISZERO PUSH2 0x72A JUMPI PUSH2 0x729 PUSH2 0x6D3 JUMP JUMPDEST JUMPDEST DUP1 PUSH1 0x40 MSTORE POP POP POP JUMP JUMPDEST PUSH1 0x0 PUSH2 0x73D PUSH2 0x6B5 JUMP JUMPDEST SWAP1 POP PUSH2 0x749 DUP3 DUP3 PUSH2 0x702 JUMP JUMPDEST SWAP2 SWAP1 POP JUMP JUMPDEST PUSH1 0x0 PUSH8 0xFFFFFFFFFFFFFFFF DUP3 GT ISZERO PUSH2 0x769 JUMPI PUSH2 0x768 PUSH2 0x6D3 JUMP JUMPDEST JUMPDEST PUSH2 0x772 DUP3 PUSH2 0x526 JUMP JUMPDEST SWAP1 POP PUSH1 0x20 DUP2 ADD SWAP1 POP SWAP2 SWAP1 POP JUMP JUMPDEST DUP3 DUP2 DUP4 CALLDATACOPY PUSH1 0x0 DUP4 DUP4 ADD MSTORE POP POP POP JUMP JUMPDEST PUSH1 0x0 PUSH2 0x7A1 PUSH2 0x79C DUP5 PUSH2 0x74E JUMP JUMPDEST PUSH2 0x733 JUMP JUMPDEST SWAP1 POP DUP3 DUP2 MSTORE PUSH1 0x20 DUP2 ADD DUP5 DUP5 DUP5 ADD GT ISZERO PUSH2 0x7BD JUMPI PUSH2 0x7BC PUSH2 0x6CE JUMP JUMPDEST JUMPDEST PUSH2 0x7C8 DUP5 DUP3 DUP6 PUSH2 0x77F JUMP JUMPDEST POP SWAP4 SWAP3 POP POP POP JUMP JUMPDEST PUSH1 0x0 DUP3 PUSH1 0x1F DUP4 ADD SLT PUSH2 0x7E5 JUMPI PUSH2 0x7E4 PUSH2 0x6C9 JUMP JUMPDEST JUMPDEST DUP2 CALLDATALOAD PUSH2 0x7F5 DUP5 DUP3 PUSH1 0x20 DUP7 ADD PUSH2 0x78E JUMP JUMPDEST SWAP2 POP POP SWAP3 SWAP2 POP POP JUMP JUMPDEST PUSH1 0x0 PUSH1 0x20 DUP3 DUP5 SUB SLT ISZERO PUSH2 0x814 JUMPI PUSH2 0x813 PUSH2 0x6BF JUMP JUMPDEST JUMPDEST PUSH1 0x0 DUP3 ADD CALLDATALOAD PUSH8 0xFFFFFFFFFFFFFFFF DUP2 GT ISZERO PUSH2 0x832 JUMPI PUSH2 0x831 PUSH2 0x6C4 JUMP JUMPDEST JUMPDEST PUSH2 0x83E DUP5 DUP3 DUP6 ADD PUSH2 0x7D0 JUMP JUMPDEST SWAP2 POP POP SWAP3 SWAP2 POP POP JUMP JUMPDEST PUSH2 0x850 DUP2 PUSH2 0x486 JUMP JUMPDEST DUP2 EQ PUSH2 0x85B JUMPI PUSH1 0x0 DUP1 REVERT JUMPDEST POP JUMP JUMPDEST PUSH1 0x0 DUP2 CALLDATALOAD SWAP1 POP PUSH2 0x86D DUP2 PUSH2 0x847 JUMP JUMPDEST SWAP3 SWAP2 POP POP JUMP JUMPDEST PUSH1 0x0 PUSH1 0x20 DUP3 DUP5 SUB SLT ISZERO PUSH2 0x889 JUMPI PUSH2 0x888 PUSH2 0x6BF JUMP JUMPDEST JUMPDEST PUSH1 0x0 PUSH2 0x897 DUP5 DUP3 DUP6 ADD PUSH2 0x85E JUMP JUMPDEST SWAP2 POP POP SWAP3 SWAP2 POP POP JUMP JUMPDEST PUSH2 0x8A9 DUP2 PUSH2 0x4BF JUMP JUMPDEST DUP3 MSTORE POP POP JUMP JUMPDEST PUSH1 0x0 DUP3 DUP3 MSTORE PUSH1 0x20 DUP3 ADD SWAP1 POP SWAP3 SWAP2 POP POP JUMP JUMPDEST PUSH1 0x0 PUSH2 0x8CB DUP3 PUSH2 0x4E0 JUMP JUMPDEST PUSH2 0x8D5 DUP2 DUP6 PUSH2 0x8AF JUMP JUMPDEST SWAP4 POP PUSH2 0x8E5 DUP2 DUP6 PUSH1 0x20 DUP7 ADD PUSH2 0x4FC JUMP JUMPDEST PUSH2 0x8EE DUP2 PUSH2 0x526 JUMP JUMPDEST DUP5 ADD SWAP2 POP POP SWAP3 SWAP2 POP POP JUMP JUMPDEST PUSH1 0x0 PUSH1 0x80 DUP3 ADD SWAP1 POP PUSH2 0x90E PUSH1 0x0 DUP4 ADD DUP8 PUSH2 0x68B JUMP JUMPDEST PUSH2 0x91B PUSH1 0x20 DUP4 ADD DUP7 PUSH2 0x8A0 JUMP JUMPDEST DUP2 DUP2 SUB PUSH1 0x40 DUP4 ADD MSTORE PUSH2 0x92D DUP2 DUP6 PUSH2 0x8C0 JUMP JUMPDEST SWAP1 POP PUSH2 0x93C PUSH1 0x60 DUP4 ADD DUP5 PUSH2 0x68B JUMP JUMPDEST SWAP6 SWAP5 POP POP POP POP POP JUMP JUMPDEST PUSH32 0x4E487B7100000000000000000000000000000000000000000000000000000000 PUSH1 0x0 MSTORE PUSH1 0x22 PUSH1 0x4 MSTORE PUSH1 0x24 PUSH1 0x0 REVERT JUMPDEST PUSH1 0x0 PUSH1 0x2 DUP3 DIV SWAP1 POP PUSH1 0x1 DUP3 AND DUP1 PUSH2 0x98C JUMPI PUSH1 0x7F DUP3 AND SWAP2 POP JUMPDEST PUSH1 0x20 DUP3 LT DUP2 SUB PUSH2 0x99F JUMPI PUSH2 0x99E PUSH2 0x945 JUMP JUMPDEST JUMPDEST POP SWAP2 SWAP1 POP JUMP JUMPDEST PUSH1 0x0 DUP2 SWAP1 POP DUP2 PUSH1 0x0 MSTORE PUSH1 0x20 PUSH1 0x0 KECCAK256 SWAP1 POP SWAP2 SWAP1 POP JUMP JUMPDEST PUSH1 0x0 PUSH1 0x20 PUSH1 0x1F DUP4 ADD DIV SWAP1 POP SWAP2 SWAP1 POP JUMP JUMPDEST PUSH1 0x0 DUP3 DUP3 SHL SWAP1 POP SWAP3 SWAP2 POP POP JUMP JUMPDEST PUSH1 0x0 PUSH1 0x8 DUP4 MUL PUSH2 0xA07 PUSH32 0xFFFFFFFFFFFFFFFFFFFFFFFFFFFFFFFFFFFFFFFFFFFFFFFFFFFFFFFFFFFFFFFF DUP3 PUSH2 0x9CA JUMP JUMPDEST PUSH2 0xA11 DUP7 DUP4 PUSH2 0x9CA JUMP JUMPDEST SWAP6 POP DUP1 NOT DUP5 AND SWAP4 POP DUP1 DUP7 AND DUP5 OR SWAP3 POP POP POP SWAP4 SWAP3 POP POP POP JUMP JUMPDEST PUSH1 0x0 DUP2 SWAP1 POP SWAP2 SWAP1 POP JUMP JUMPDEST PUSH1 0x0 PUSH2 0xA4E PUSH2 0xA49 PUSH2 0xA44 DUP5 PUSH2 0x486 JUMP JUMPDEST PUSH2 0xA29 JUMP JUMPDEST PUSH2 0x486 JUMP JUMPDEST SWAP1 POP SWAP2 SWAP1 POP JUMP JUMPDEST PUSH1 0x0 DUP2 SWAP1 POP SWAP2 SWAP1 POP JUMP JUMPDEST PUSH2 0xA68 DUP4 PUSH2 0xA33 JUMP JUMPDEST PUSH2 0xA7C PUSH2 0xA74 DUP3 PUSH2 0xA55 JUMP JUMPDEST DUP5 DUP5 SLOAD PUSH2 0x9D7 JUMP JUMPDEST DUP3 SSTORE POP POP POP POP JUMP JUMPDEST PUSH1 0x0 SWAP1 JUMP JUMPDEST PUSH2 0xA91 PUSH2 0xA84 JUMP JUMPDEST PUSH2 0xA9C DUP2 DUP5 DUP5 PUSH2 0xA5F JUMP JUMPDEST POP POP POP JUMP JUMPDEST JUMPDEST DUP2 DUP2 LT ISZERO PUSH2 0xAC0 JUMPI PUSH2 0xAB5 PUSH1 0x0 DUP3 PUSH2 0xA89 JUMP JUMPDEST PUSH1 0x1 DUP2 ADD SWAP1 POP PUSH2 0xAA2 JUMP JUMPDEST POP POP JUMP JUMPDEST PUSH1 0x1F DUP3 GT ISZERO PUSH2 0xB05 JUMPI PUSH2 0xAD6 DUP2 PUSH2 0x9A5 JUMP JUMPDEST PUSH2 0xADF DUP5 PUSH2 0x9BA JUMP JUMPDEST DUP2 ADD PUSH1 0x20 DUP6 LT ISZERO PUSH2 0xAEE JUMPI DUP2 SWAP1 POP JUMPDEST PUSH2 0xB02 PUSH2 0xAFA DUP6 PUSH2 0x9BA JUMP JUMPDEST DUP4 ADD DUP3 PUSH2 0xAA1 JUMP JUMPDEST POP POP JUMPDEST POP POP POP JUMP JUMPDEST PUSH1 0x0 DUP3 DUP3 SHR SWAP1 POP SWAP3 SWAP2 POP POP JUMP JUMPDEST PUSH1 0x0 PUSH2 0xB28 PUSH1 0x0 NOT DUP5 PUSH1 0x8 MUL PUSH2 0xB0A JUMP JUMPDEST NOT DUP1 DUP4 AND SWAP2 POP POP SWAP3 SWAP2 POP POP JUMP JUMPDEST PUSH1 0x0 PUSH2 0xB41 DUP4 DUP4 PUSH2 0xB17 JUMP JUMPDEST SWAP2 POP DUP3 PUSH1 0x2 MUL DUP3 OR SWAP1 POP SWAP3 SWAP2 POP POP JUMP JUMPDEST PUSH2 0xB5A DUP3 PUSH2 0x4E0 JUMP JUMPDEST PUSH8 0xFFFFFFFFFFFFFFFF DUP2 GT ISZERO PUSH2 0xB73 JUMPI PUSH2 0xB72 PUSH2 0x6D3 JUMP JUMPDEST JUMPDEST PUSH2 0xB7D DUP3 SLOAD PUSH2 0x974 JUMP JUMPDEST PUSH2 0xB88 DUP3 DUP3 DUP6 PUSH2 0xAC4 JUMP JUMPDEST PUSH1 0x0 PUSH1 0x20 SWAP1 POP PUSH1 0x1F DUP4 GT PUSH1 0x1 DUP2 EQ PUSH2 0xBBB JUMPI PUSH1 0x0 DUP5 ISZERO PUSH2 0xBA9 JUMPI DUP3 DUP8 ADD MLOAD SWAP1 POP JUMPDEST PUSH2 0xBB3 DUP6 DUP3 PUSH2 0xB35 JUMP JUMPDEST DUP7 SSTORE POP PUSH2 0xC1B JUMP JUMPDEST PUSH1 0x1F NOT DUP5 AND PUSH2 0xBC9 DUP7 PUSH2 0x9A5 JUMP JUMPDEST PUSH1 0x0 JUMPDEST DUP3 DUP2 LT ISZERO PUSH2 0xBF1 JUMPI DUP5 DUP10 ADD MLOAD DUP3 SSTORE PUSH1 0x1 DUP3 ADD SWAP2 POP PUSH1 0x20 DUP6 ADD SWAP5 POP PUSH1 0x20 DUP2 ADD SWAP1 POP PUSH2 0xBCC JUMP JUMPDEST DUP7 DUP4 LT ISZERO PUSH2 0xC0E JUMPI DUP5 DUP10 ADD MLOAD PUSH2 0xC0A PUSH1 0x1F DUP10 AND DUP3 PUSH2 0xB17 JUMP JUMPDEST DUP4 SSTORE POP JUMPDEST PUSH1 0x1 PUSH1 0x2 DUP9 MUL ADD DUP9 SSTORE POP POP POP JUMPDEST POP POP POP POP POP POP JUMP JUMPDEST PUSH32 0x4E487B7100000000000000000000000000000000000000000000000000000000 PUSH1 0x0 MSTORE PUSH1 0x11 PUSH1 0x4 MSTORE PUSH1 0x24 PUSH1 0x0 REVERT JUMPDEST PUSH1 0x0 PUSH2 0xC5D DUP3 PUSH2 0x486 JUMP JUMPDEST SWAP2 POP PUSH32 0xFFFFFFFFFFFFFFFFFFFFFFFFFFFFFFFFFFFFFFFFFFFFFFFFFFFFFFFFFFFFFFFF DUP3 SUB PUSH2 0xC8F JUMPI PUSH2 0xC8E PUSH2 0xC23 JUMP JUMPDEST JUMPDEST PUSH1 0x1 DUP3 ADD SWAP1 POP SWAP2 SWAP1 POP JUMP INVALID LOG2 PUSH5 0x6970667358 0x22 SLT KECCAK256 0xEA MUL 0xAB PUSH13 0x368B825E5E6D5D95099C7B17B8 SGT 0x25 0x5C MOD 0xE0 SWAP2 PUSH11 0x260102797BB2D28364736F PUSH13 0x63430008120033000000000000 "},"methodIdentifiers":{"complaintCount()":"2edea294","complaints(uint256)":"7e69e912","getAllComplaints()":"0dac9539","submitComplaint(string)":"60d06892"}}}}}